:10000000743811B111CB740E11B111CB740111B14F
:1000100011CB740611B111CB748011B111CB74489E
:1000200011BE11CB746111BE11CB747211BE11CB14
:10003000747311BE11CB746811BE11CB746111BE03
:1000400011CB747611BE11CB746111BE11CB7472D9
:1000500011BE11CB746411BE11CB746811BE11CBEB
:10006000746111BE11CB746E11BE11CB74C011B18D
:1000700011CB743211BE11CB743411BE11CB74305C
:1000800011BE11CB743011BE11CB743011BE11CB27
:10009000743411BE11CB743011BE11CB743411BE47
:0E00A00011CB743511BE11CB743411BE11CBCF
:1000AE00020000F590C2A0C2A1D2A211CBC2A22220
:0F00BE00F590D2A0C2A1D2A211CBC2A2227B0583
:0700CD007C07DCFEDBFA22D8
:00000001FF
