:03000000020800F3
:10080000787FE4F6D8FD7581120208470208A9E452
:1008100093A3F8E493A34003F68001F208DFF48089
:1008200029E493A3F85407240CC8C333C4540F44D9
:1008300020C8834004F456800146F6DFE4800B01B3
:10084000020408102040809008C2E47E019360BC3E
:10085000A3FF543F30E509541FFEE493A360010E4B
:10086000CF54C025E060A840B8E493A3FAE493A372
:10087000F8E493A3C8C582C8CAC583CAF0A3C8C593
:1008800082C8CAC583CADFE9DEE780BEE4FFFEE4B2
:10089000FDFC0DBD00010CBC04F8BDFBF50FBF0055
:1008A000010EEF64644E70E722E4F512740825121D
:1008B000F8E6F5A012088C0512E512C3940A40EC84
:0F08C00080E70A083F065B4F666D7D077F6F007C
:00000001FF