:1000000074381168117E740E1168117E74011168C4
:10001000117E74061168117E74801168117E744E11
:100020001173117E74201173117E74501173117E3F
:1000300074521173117E74411173117E74421173E5
:10004000117E74411173117E744B1173117E7441D2
:100050001173117E74521173117E74411173117EEC
:10006000744E1173117E8098F590C286D287117EEE
:10007000C28722F590D286D287117EC287227BFF6B
:0B0080007C1F790FD9FEDCFADBF622B2
:00000001FF
