:03000000020904EE
:0C090400787FE4F6D8FD75810B02080036
:0F08F50057454C434F4D4520544F00702643004C
:100800007F281208A07F0F1208A07F061208A07F81
:10081000011208A07F841208A07BFF7A0879F512E4
:10082000085B7FC61208A07BFF7A09790012085B7B
:0208300080FE48
:1008A0008F08C293E508120832120910E508540FA8
:0E08B000FF1208361209107F027E0002088037
:1008BE008F0BD293E50B120832120910E50B540F71
:0E08CE00FF1208361209107F027E0002088019
:10085B008B088A09890AAB08AA09A90A1208DC6065
:10086B0013050AE50A7002050914F91208DCFF12D8
:05087B0008BE80E2222E
:04083200C4540FFF9C
:10083600EF139294EF5402C31324FF9295EF5404DE
:100846001313543F24FF9296EF5408131313541FA7
:0508560024FF9297222F
:0C091000D2927F017E00120880C2922269
:10088000E4FDFCC3ED9FEC9E5015E4FBFA0BBB00AE
:0F089000010ABA04F8BBFBF50DBD00010C80E4B2
:01089F002236
:1008DC00BB010689828A83E0225002E722BBFE021A
:0908EC00E32289828A83E493224D
:00000001FF
